{
  "contractName": "EnergyToken",
  "abi": [
    {
      "inputs": [
        {
          "internalType": "uint256",
          "name": "initialSupply",
          "type": "uint256"
        },
        {
          "internalType": "address[]",
          "name": "_defaultOperators",
          "type": "address[]"
        }
      ],
      "stateMutability": "nonpayable",
      "type": "constructor"
    },
    {
      "anonymous": false,
      "inputs": [
        {
          "indexed": true,
          "internalType": "address",
          "name": "owner",
          "type": "address"
        },
        {
          "indexed": true,
          "internalType": "address",
          "name": "spender",
          "type": "address"
        },
        {
          "indexed": false,
          "internalType": "uint256",
          "name": "value",
          "type": "uint256"
        }
      ],
      "name": "Approval",
      "type": "event"
    },
    {
      "anonymous": false,
      "inputs": [
        {
          "indexed": true,
          "internalType": "address",
          "name": "operator",
          "type": "address"
        },
        {
          "indexed": true,
          "internalType": "address",
          "name": "tokenHolder",
          "type": "address"
        }
      ],
      "name": "AuthorizedOperator",
      "type": "event"
    },
    {
      "anonymous": false,
      "inputs": [
        {
          "indexed": true,
          "internalType": "address",
          "name": "operator",
          "type": "address"
        },
        {
          "indexed": true,
          "internalType": "address",
          "name": "from",
          "type": "address"
        },
        {
          "indexed": false,
          "internalType": "uint256",
          "name": "amount",
          "type": "uint256"
        },
        {
          "indexed": false,
          "internalType": "bytes",
          "name": "data",
          "type": "bytes"
        },
        {
          "indexed": false,
          "internalType": "bytes",
          "name": "operatorData",
          "type": "bytes"
        }
      ],
      "name": "Burned",
      "type": "event"
    },
    {
      "anonymous": false,
      "inputs": [
        {
          "indexed": false,
          "internalType": "address",
          "name": "nodeAddress",
          "type": "address"
        },
        {
          "indexed": false,
          "internalType": "uint256",
          "name": "tokens",
          "type": "uint256"
        },
        {
          "indexed": false,
          "internalType": "uint8",
          "name": "entity",
          "type": "uint8"
        },
        {
          "indexed": false,
          "internalType": "uint256",
          "name": "currentLot",
          "type": "uint256"
        },
        {
          "indexed": false,
          "internalType": "uint256",
          "name": "id",
          "type": "uint256"
        }
      ],
      "name": "EnergyTokenAltered",
      "type": "event"
    },
    {
      "anonymous": false,
      "inputs": [
        {
          "indexed": true,
          "internalType": "address",
          "name": "operator",
          "type": "address"
        },
        {
          "indexed": true,
          "internalType": "address",
          "name": "to",
          "type": "address"
        },
        {
          "indexed": false,
          "internalType": "uint256",
          "name": "amount",
          "type": "uint256"
        },
        {
          "indexed": false,
          "internalType": "bytes",
          "name": "data",
          "type": "bytes"
        },
        {
          "indexed": false,
          "internalType": "bytes",
          "name": "operatorData",
          "type": "bytes"
        }
      ],
      "name": "Minted",
      "type": "event"
    },
    {
      "anonymous": false,
      "inputs": [
        {
          "indexed": false,
          "internalType": "string",
          "name": "message",
          "type": "string"
        }
      ],
      "name": "NodeAdded",
      "type": "event"
    },
    {
      "anonymous": false,
      "inputs": [
        {
          "indexed": true,
          "internalType": "address",
          "name": "operator",
          "type": "address"
        },
        {
          "indexed": true,
          "internalType": "address",
          "name": "tokenHolder",
          "type": "address"
        }
      ],
      "name": "RevokedOperator",
      "type": "event"
    },
    {
      "anonymous": false,
      "inputs": [
        {
          "indexed": true,
          "internalType": "address",
          "name": "operator",
          "type": "address"
        },
        {
          "indexed": true,
          "internalType": "address",
          "name": "from",
          "type": "address"
        },
        {
          "indexed": true,
          "internalType": "address",
          "name": "to",
          "type": "address"
        },
        {
          "indexed": false,
          "internalType": "uint256",
          "name": "amount",
          "type": "uint256"
        },
        {
          "indexed": false,
          "internalType": "bytes",
          "name": "data",
          "type": "bytes"
        },
        {
          "indexed": false,
          "internalType": "bytes",
          "name": "operatorData",
          "type": "bytes"
        }
      ],
      "name": "Sent",
      "type": "event"
    },
    {
      "anonymous": false,
      "inputs": [
        {
          "indexed": true,
          "internalType": "address",
          "name": "from",
          "type": "address"
        },
        {
          "indexed": true,
          "internalType": "address",
          "name": "to",
          "type": "address"
        },
        {
          "indexed": false,
          "internalType": "uint256",
          "name": "value",
          "type": "uint256"
        }
      ],
      "name": "Transfer",
      "type": "event"
    },
    {
      "inputs": [
        {
          "internalType": "address",
          "name": "holder",
          "type": "address"
        },
        {
          "internalType": "address",
          "name": "spender",
          "type": "address"
        }
      ],
      "name": "allowance",
      "outputs": [
        {
          "internalType": "uint256",
          "name": "",
          "type": "uint256"
        }
      ],
      "stateMutability": "view",
      "type": "function",
      "constant": true
    },
    {
      "inputs": [
        {
          "internalType": "address",
          "name": "spender",
          "type": "address"
        },
        {
          "internalType": "uint256",
          "name": "value",
          "type": "uint256"
        }
      ],
      "name": "approve",
      "outputs": [
        {
          "internalType": "bool",
          "name": "",
          "type": "bool"
        }
      ],
      "stateMutability": "nonpayable",
      "type": "function"
    },
    {
      "inputs": [
        {
          "internalType": "address",
          "name": "operator",
          "type": "address"
        }
      ],
      "name": "authorizeOperator",
      "outputs": [],
      "stateMutability": "nonpayable",
      "type": "function"
    },
    {
      "inputs": [
        {
          "internalType": "address",
          "name": "tokenHolder",
          "type": "address"
        }
      ],
      "name": "balanceOf",
      "outputs": [
        {
          "internalType": "uint256",
          "name": "",
          "type": "uint256"
        }
      ],
      "stateMutability": "view",
      "type": "function",
      "constant": true
    },
    {
      "inputs": [
        {
          "internalType": "uint256",
          "name": "amount",
          "type": "uint256"
        },
        {
          "internalType": "bytes",
          "name": "data",
          "type": "bytes"
        }
      ],
      "name": "burn",
      "outputs": [],
      "stateMutability": "nonpayable",
      "type": "function"
    },
    {
      "inputs": [],
      "name": "checkLost",
      "outputs": [
        {
          "internalType": "uint256",
          "name": "",
          "type": "uint256"
        }
      ],
      "stateMutability": "view",
      "type": "function",
      "constant": true
    },
    {
      "inputs": [
        {
          "internalType": "uint256",
          "name": "",
          "type": "uint256"
        }
      ],
      "name": "consumerLogs",
      "outputs": [
        {
          "internalType": "uint256",
          "name": "units",
          "type": "uint256"
        },
        {
          "internalType": "uint256",
          "name": "lot",
          "type": "uint256"
        },
        {
          "internalType": "uint256",
          "name": "datetime",
          "type": "uint256"
        }
      ],
      "stateMutability": "view",
      "type": "function",
      "constant": true
    },
    {
      "inputs": [
        {
          "internalType": "uint256",
          "name": "",
          "type": "uint256"
        }
      ],
      "name": "consumerNodes",
      "outputs": [
        {
          "internalType": "address",
          "name": "",
          "type": "address"
        }
      ],
      "stateMutability": "view",
      "type": "function",
      "constant": true
    },
    {
      "inputs": [
        {
          "internalType": "address",
          "name": "",
          "type": "address"
        }
      ],
      "name": "consumers",
      "outputs": [
        {
          "internalType": "uint256",
          "name": "",
          "type": "uint256"
        }
      ],
      "stateMutability": "view",
      "type": "function",
      "constant": true
    },
    {
      "inputs": [],
      "name": "cost",
      "outputs": [
        {
          "internalType": "uint256",
          "name": "",
          "type": "uint256"
        }
      ],
      "stateMutability": "view",
      "type": "function",
      "constant": true
    },
    {
      "inputs": [],
      "name": "currentLot",
      "outputs": [
        {
          "internalType": "uint256",
          "name": "",
          "type": "uint256"
        }
      ],
      "stateMutability": "view",
      "type": "function",
      "constant": true
    },
    {
      "inputs": [],
      "name": "decimals",
      "outputs": [
        {
          "internalType": "uint8",
          "name": "",
          "type": "uint8"
        }
      ],
      "stateMutability": "pure",
      "type": "function",
      "constant": true
    },
    {
      "inputs": [],
      "name": "defaultOperators",
      "outputs": [
        {
          "internalType": "address[]",
          "name": "",
          "type": "address[]"
        }
      ],
      "stateMutability": "view",
      "type": "function",
      "constant": true
    },
    {
      "inputs": [
        {
          "internalType": "uint256",
          "name": "",
          "type": "uint256"
        }
      ],
      "name": "defaultoperators",
      "outputs": [
        {
          "internalType": "address",
          "name": "",
          "type": "address"
        }
      ],
      "stateMutability": "view",
      "type": "function",
      "constant": true
    },
    {
      "inputs": [
        {
          "internalType": "uint256",
          "name": "",
          "type": "uint256"
        }
      ],
      "name": "distributorLogs",
      "outputs": [
        {
          "internalType": "uint256",
          "name": "units",
          "type": "uint256"
        },
        {
          "internalType": "uint256",
          "name": "lot",
          "type": "uint256"
        },
        {
          "internalType": "uint256",
          "name": "datetime",
          "type": "uint256"
        }
      ],
      "stateMutability": "view",
      "type": "function",
      "constant": true
    },
    {
      "inputs": [
        {
          "internalType": "uint256",
          "name": "",
          "type": "uint256"
        }
      ],
      "name": "distributorNodes",
      "outputs": [
        {
          "internalType": "address",
          "name": "",
          "type": "address"
        }
      ],
      "stateMutability": "view",
      "type": "function",
      "constant": true
    },
    {
      "inputs": [
        {
          "internalType": "address",
          "name": "",
          "type": "address"
        }
      ],
      "name": "distributors",
      "outputs": [
        {
          "internalType": "uint256",
          "name": "",
          "type": "uint256"
        }
      ],
      "stateMutability": "view",
      "type": "function",
      "constant": true
    },
    {
      "inputs": [],
      "name": "granularity",
      "outputs": [
        {
          "internalType": "uint256",
          "name": "",
          "type": "uint256"
        }
      ],
      "stateMutability": "view",
      "type": "function",
      "constant": true
    },
    {
      "inputs": [
        {
          "internalType": "address",
          "name": "operator",
          "type": "address"
        },
        {
          "internalType": "address",
          "name": "tokenHolder",
          "type": "address"
        }
      ],
      "name": "isOperatorFor",
      "outputs": [
        {
          "internalType": "bool",
          "name": "",
          "type": "bool"
        }
      ],
      "stateMutability": "view",
      "type": "function",
      "constant": true
    },
    {
      "inputs": [],
      "name": "name",
      "outputs": [
        {
          "internalType": "string",
          "name": "",
          "type": "string"
        }
      ],
      "stateMutability": "view",
      "type": "function",
      "constant": true
    },
    {
      "inputs": [
        {
          "internalType": "address",
          "name": "account",
          "type": "address"
        },
        {
          "internalType": "uint256",
          "name": "amount",
          "type": "uint256"
        },
        {
          "internalType": "bytes",
          "name": "data",
          "type": "bytes"
        },
        {
          "internalType": "bytes",
          "name": "operatorData",
          "type": "bytes"
        }
      ],
      "name": "operatorBurn",
      "outputs": [],
      "stateMutability": "nonpayable",
      "type": "function"
    },
    {
      "inputs": [
        {
          "internalType": "address",
          "name": "sender",
          "type": "address"
        },
        {
          "internalType": "address",
          "name": "recipient",
          "type": "address"
        },
        {
          "internalType": "uint256",
          "name": "amount",
          "type": "uint256"
        },
        {
          "internalType": "bytes",
          "name": "data",
          "type": "bytes"
        },
        {
          "internalType": "bytes",
          "name": "operatorData",
          "type": "bytes"
        }
      ],
      "name": "operatorSend",
      "outputs": [],
      "stateMutability": "nonpayable",
      "type": "function"
    },
    {
      "inputs": [
        {
          "internalType": "uint256",
          "name": "",
          "type": "uint256"
        }
      ],
      "name": "plantLogs",
      "outputs": [
        {
          "internalType": "uint256",
          "name": "units",
          "type": "uint256"
        },
        {
          "internalType": "uint256",
          "name": "lot",
          "type": "uint256"
        },
        {
          "internalType": "uint256",
          "name": "datetime",
          "type": "uint256"
        }
      ],
      "stateMutability": "view",
      "type": "function",
      "constant": true
    },
    {
      "inputs": [
        {
          "internalType": "uint256",
          "name": "",
          "type": "uint256"
        }
      ],
      "name": "plantNodes",
      "outputs": [
        {
          "internalType": "address",
          "name": "",
          "type": "address"
        }
      ],
      "stateMutability": "view",
      "type": "function",
      "constant": true
    },
    {
      "inputs": [
        {
          "internalType": "address",
          "name": "",
          "type": "address"
        }
      ],
      "name": "plants",
      "outputs": [
        {
          "internalType": "uint256",
          "name": "",
          "type": "uint256"
        }
      ],
      "stateMutability": "view",
      "type": "function",
      "constant": true
    },
    {
      "inputs": [
        {
          "internalType": "address",
          "name": "operator",
          "type": "address"
        }
      ],
      "name": "revokeOperator",
      "outputs": [],
      "stateMutability": "nonpayable",
      "type": "function"
    },
    {
      "inputs": [
        {
          "internalType": "address",
          "name": "recipient",
          "type": "address"
        },
        {
          "internalType": "uint256",
          "name": "amount",
          "type": "uint256"
        },
        {
          "internalType": "bytes",
          "name": "data",
          "type": "bytes"
        }
      ],
      "name": "send",
      "outputs": [],
      "stateMutability": "nonpayable",
      "type": "function"
    },
    {
      "inputs": [],
      "name": "symbol",
      "outputs": [
        {
          "internalType": "string",
          "name": "",
          "type": "string"
        }
      ],
      "stateMutability": "view",
      "type": "function",
      "constant": true
    },
    {
      "inputs": [],
      "name": "totalCost",
      "outputs": [
        {
          "internalType": "uint256",
          "name": "",
          "type": "uint256"
        }
      ],
      "stateMutability": "view",
      "type": "function",
      "constant": true
    },
    {
      "inputs": [],
      "name": "totalSupply",
      "outputs": [
        {
          "internalType": "uint256",
          "name": "",
          "type": "uint256"
        }
      ],
      "stateMutability": "view",
      "type": "function",
      "constant": true
    },
    {
      "inputs": [
        {
          "internalType": "address",
          "name": "recipient",
          "type": "address"
        },
        {
          "internalType": "uint256",
          "name": "amount",
          "type": "uint256"
        }
      ],
      "name": "transfer",
      "outputs": [
        {
          "internalType": "bool",
          "name": "",
          "type": "bool"
        }
      ],
      "stateMutability": "nonpayable",
      "type": "function"
    },
    {
      "inputs": [
        {
          "internalType": "address",
          "name": "holder",
          "type": "address"
        },
        {
          "internalType": "address",
          "name": "recipient",
          "type": "address"
        },
        {
          "internalType": "uint256",
          "name": "amount",
          "type": "uint256"
        }
      ],
      "name": "transferFrom",
      "outputs": [
        {
          "internalType": "bool",
          "name": "",
          "type": "bool"
        }
      ],
      "stateMutability": "nonpayable",
      "type": "function"
    },
    {
      "inputs": [
        {
          "internalType": "uint256",
          "name": "numerator",
          "type": "uint256"
        },
        {
          "internalType": "uint256",
          "name": "denominator",
          "type": "uint256"
        },
        {
          "internalType": "uint256",
          "name": "precision",
          "type": "uint256"
        }
      ],
      "name": "percent",
      "outputs": [
        {
          "internalType": "int256",
          "name": "quotient",
          "type": "int256"
        }
      ],
      "stateMutability": "nonpayable",
      "type": "function"
    },
    {
      "inputs": [
        {
          "internalType": "address",
          "name": "nodeAddress",
          "type": "address"
        },
        {
          "internalType": "uint256",
          "name": "entity",
          "type": "uint256"
        },
        {
          "internalType": "uint256",
          "name": "id",
          "type": "uint256"
        },
        {
          "internalType": "uint256",
          "name": "aheadEntity",
          "type": "uint256"
        }
      ],
      "name": "createNode",
      "outputs": [],
      "stateMutability": "nonpayable",
      "type": "function"
    },
    {
      "inputs": [],
      "name": "mine",
      "outputs": [],
      "stateMutability": "nonpayable",
      "type": "function"
    },
    {
      "inputs": [
        {
          "internalType": "uint256",
          "name": "units",
          "type": "uint256"
        },
        {
          "internalType": "address",
          "name": "distributor",
          "type": "address"
        }
      ],
      "name": "mineTokenPlant",
      "outputs": [],
      "stateMutability": "nonpayable",
      "type": "function"
    },
    {
      "inputs": [
        {
          "internalType": "uint256",
          "name": "units",
          "type": "uint256"
        },
        {
          "internalType": "address",
          "name": "consumer",
          "type": "address"
        },
        {
          "internalType": "address payable",
          "name": "plant",
          "type": "address"
        }
      ],
      "name": "evaluateTokenDistributor",
      "outputs": [],
      "stateMutability": "payable",
      "type": "function",
      "payable": true
    },
    {
      "inputs": [
        {
          "internalType": "uint256",
          "name": "units",
          "type": "uint256"
        },
        {
          "internalType": "address payable",
          "name": "distributor",
          "type": "address"
        }
      ],
      "name": "evaluateTokenConsumer",
      "outputs": [],
      "stateMutability": "payable",
      "type": "function",
      "payable": true
    },
    {
      "inputs": [
        {
          "internalType": "uint256",
          "name": "_cost",
          "type": "uint256"
        }
      ],
      "name": "setCost",
      "outputs": [],
      "stateMutability": "nonpayable",
      "type": "function"
    }
  ],
  "bytecode": "0x6080604052600a600d553480156200001657600080fd5b5060405162004d6a38038062004d6a833981810160405260408110156200003c57600080fd5b8101908080519060200190929190805160405193929190846401000000008211156200006757600080fd5b838201915060208201858111156200007e57600080fd5b82518660208202830111640100000000821117156200009c57600080fd5b8083526020830192505050908051906020019060200280838360005b83811015620000d5578082015181840152602081019050620000b8565b505050509050016040525050506040518060400160405280600b81526020017f456e65726779546f6b656e0000000000000000000000000000000000000000008152506040518060400160405280600381526020017f45544e000000000000000000000000000000000000000000000000000000000081525082826002908051906020019062000167929190620004ad565b50816003908051906020019062000180929190620004ad565b5080600490805190602001906200019992919062000534565b5060008090505b6004805490508110156200024c5760016005600060048481548110620001c257fe5b9060005260206000200160009054906101000a900473ffffffffffffffffffffffffffffffffffffffff1673ffffffffffffffffffffffffffffffffffffffff1673ffffffffffffffffffffffffffffffffffffffff16815260200190815260200160002060006101000a81548160ff0219169083151502179055508080600101915050620001a0565b50731820a4b7618bde71dce8cdc73aab6c95905fad2473ffffffffffffffffffffffffffffffffffffffff166329965a1d3060405180807f455243373737546f6b656e000000000000000000000000000000000000000000815250600b0190506040518091039020306040518463ffffffff1660e01b8152600401808473ffffffffffffffffffffffffffffffffffffffff1673ffffffffffffffffffffffffffffffffffffffff1681526020018381526020018273ffffffffffffffffffffffffffffffffffffffff1673ffffffffffffffffffffffffffffffffffffffff1681526020019350505050600060405180830381600087803b1580156200035257600080fd5b505af115801562000367573d6000803e3d6000fd5b50505050731820a4b7618bde71dce8cdc73aab6c95905fad2473ffffffffffffffffffffffffffffffffffffffff166329965a1d3060405180807f4552433230546f6b656e00000000000000000000000000000000000000000000815250600a0190506040518091039020306040518463ffffffff1660e01b8152600401808473ffffffffffffffffffffffffffffffffffffffff1673ffffffffffffffffffffffffffffffffffffffff1681526020018381526020018273ffffffffffffffffffffffffffffffffffffffff1673ffffffffffffffffffffffffffffffffffffffff1681526020019350505050600060405180830381600087803b1580156200047057600080fd5b505af115801562000485573d6000803e3d6000fd5b5050505050505080600c9080519060200190620004a492919062000534565b50505062000631565b828054600181600116156101000203166002900490600052602060002090601f016020900481019282601f10620004f057805160ff191683800117855562000521565b8280016001018555821562000521579182015b828111156200052057825182559160200191906001019062000503565b5b509050620005309190620005c3565b5090565b828054828255906000526020600020908101928215620005b0579160200282015b82811115620005af5782518260006101000a81548173ffffffffffffffffffffffffffffffffffffffff021916908373ffffffffffffffffffffffffffffffffffffffff1602179055509160200191906001019062000555565b5b509050620005bf9190620005eb565b5090565b620005e891905b80821115620005e4576000816000905550600101620005ca565b5090565b90565b6200062e91905b808211156200062a57600081816101000a81549073ffffffffffffffffffffffffffffffffffffffff021916905550600101620005f2565b5090565b90565b61472980620006416000396000f3fe60806040526004361061022f5760003560e01c806395d89b411161012e578063d95b6371116100ab578063f869e7201161006f578063f869e72014611076578063f9d4d4da146110d3578063fad8b32a14611138578063fc673c4f14611189578063fe9d9303146113125761022f565b8063d95b637114610e47578063dd62ed3e14610ed0578063e4ebe87914610f55578063eef0c04f14610fd0578063ef9ec94c1461104b5761022f565b8063adcf42e9116100f2578063adcf42e914610c70578063bd7f3b1914610ccd578063cc64278414610d3c578063d21191a814610da1578063d8cd521a14610e1c5761022f565b806395d89b41146109f657806399f4b25114610a865780639bd9bbc614610a9d5780639c0c3e1214610b8f578063a9059cbb14610bfd5761022f565b806323b872dd116101bc57806344a0d68a1161018057806344a0d68a14610731578063556f0dc71461076c57806362ad1b831461079757806370a0823114610940578063959b8c3f146109a55761022f565b806323b872dd1461056c57806329527bed146105ff57806330b0bd391461065a578063313ce567146106d55780633c5e6c97146107065761022f565b8063095ea7b311610203578063095ea7b3146103e15780630bf536681461045457806313faede6146104b957806318160ddd146104e457806321d8809b1461050f5761022f565b80622c1a9e14610234578063017f4d1d1461029757806306e48538146102e557806306fdde0314610351575b600080fd5b34801561024057600080fd5b506102816004803603606081101561025757600080fd5b810190808035906020019092919080359060200190929190803590602001909291905050506113e4565b6040518082815260200191505060405180910390f35b6102e3600480360360408110156102ad57600080fd5b8101908080359060200190929190803573ffffffffffffffffffffffffffffffffffffffff169060200190929190505050611419565b005b3480156102f157600080fd5b506102fa611661565b6040518080602001828103825283818151815260200191508051906020019060200280838360005b8381101561033d578082015181840152602081019050610322565b505050509050019250505060405180910390f35b34801561035d57600080fd5b506103666116ef565b6040518080602001828103825283818151815260200191508051906020019080838360005b838110156103a657808201518184015260208101905061038b565b50505050905090810190601f1680156103d35780820380516001836020036101000a031916815260200191505b509250505060405180910390f35b3480156103ed57600080fd5b5061043a6004803603604081101561040457600080fd5b81019080803573ffffffffffffffffffffffffffffffffffffffff16906020019092919080359060200190929190505050611791565b604051808215151515815260200191505060405180910390f35b34801561046057600080fd5b506104a36004803603602081101561047757600080fd5b81019080803573ffffffffffffffffffffffffffffffffffffffff1690602001909291905050506117b4565b6040518082815260200191505060405180910390f35b3480156104c557600080fd5b506104ce6117cc565b6040518082815260200191505060405180910390f35b3480156104f057600080fd5b506104f96117d2565b6040518082815260200191505060405180910390f35b34801561051b57600080fd5b506105486004803603602081101561053257600080fd5b81019080803590602001909291905050506117dc565b60405180848152602001838152602001828152602001935050505060405180910390f35b34801561057857600080fd5b506105e56004803603606081101561058f57600080fd5b81019080803573ffffffffffffffffffffffffffffffffffffffff169060200190929190803573ffffffffffffffffffffffffffffffffffffffff16906020019092919080359060200190929190505050611806565b604051808215151515815260200191505060405180910390f35b34801561060b57600080fd5b506106586004803603604081101561062257600080fd5b8101908080359060200190929190803573ffffffffffffffffffffffffffffffffffffffff169060200190929190505050611a64565b005b34801561066657600080fd5b506106936004803603602081101561067d57600080fd5b8101908080359060200190929190505050611c63565b604051808273ffffffffffffffffffffffffffffffffffffffff1673ffffffffffffffffffffffffffffffffffffffff16815260200191505060405180910390f35b3480156106e157600080fd5b506106ea611c9f565b604051808260ff1660ff16815260200191505060405180910390f35b34801561071257600080fd5b5061071b611ca8565b6040518082815260200191505060405180910390f35b34801561073d57600080fd5b5061076a6004803603602081101561075457600080fd5b8101908080359060200190929190505050611cae565b005b34801561077857600080fd5b50610781611d25565b6040518082815260200191505060405180910390f35b3480156107a357600080fd5b5061093e600480360360a08110156107ba57600080fd5b81019080803573ffffffffffffffffffffffffffffffffffffffff169060200190929190803573ffffffffffffffffffffffffffffffffffffffff169060200190929190803590602001909291908035906020019064010000000081111561082157600080fd5b82018360208201111561083357600080fd5b8035906020019184600183028401116401000000008311171561085557600080fd5b91908080601f016020809104026020016040519081016040528093929190818152602001838380828437600081840152601f19601f820116905080830192505050505050509192919290803590602001906401000000008111156108b857600080fd5b8201836020820111156108ca57600080fd5b803590602001918460018302840111640100000000831117156108ec57600080fd5b91908080601f016020809104026020016040519081016040528093929190818152602001838380828437600081840152601f19601f820116905080830192505050505050509192919290505050611d2e565b005b34801561094c57600080fd5b5061098f6004803603602081101561096357600080fd5b81019080803573ffffffffffffffffffffffffffffffffffffffff169060200190929190505050611daa565b6040518082815260200191505060405180910390f35b3480156109b157600080fd5b506109f4600480360360208110156109c857600080fd5b81019080803573ffffffffffffffffffffffffffffffffffffffff169060200190929190505050611df2565b005b348015610a0257600080fd5b50610a0b612069565b6040518080602001828103825283818151815260200191508051906020019080838360005b83811015610a4b578082015181840152602081019050610a30565b50505050905090810190601f168015610a785780820380516001836020036101000a031916815260200191505b509250505060405180910390f35b348015610a9257600080fd5b50610a9b61210b565b005b348015610aa957600080fd5b50610b8d60048036036060811015610ac057600080fd5b81019080803573ffffffffffffffffffffffffffffffffffffffff1690602001909291908035906020019092919080359060200190640100000000811115610b0757600080fd5b820183602082011115610b1957600080fd5b80359060200191846001830284011164010000000083111715610b3b57600080fd5b91908080601f016020809104026020016040519081016040528093929190818152602001838380828437600081840152601f19601f820116905080830192505050505050509192919290505050612139565b005b610bfb60048036036060811015610ba557600080fd5b8101908080359060200190929190803573ffffffffffffffffffffffffffffffffffffffff169060200190929190803573ffffffffffffffffffffffffffffffffffffffff169060200190929190505050612163565b005b348015610c0957600080fd5b50610c5660048036036040811015610c2057600080fd5b81019080803573ffffffffffffffffffffffffffffffffffffffff16906020019092919080359060200190929190505050612400565b604051808215151515815260200191505060405180910390f35b348015610c7c57600080fd5b50610ca960048036036020811015610c9357600080fd5b8101908080359060200190929190505050612524565b60405180848152602001838152602001828152602001935050505060405180910390f35b348015610cd957600080fd5b50610d3a60048036036080811015610cf057600080fd5b81019080803573ffffffffffffffffffffffffffffffffffffffff16906020019092919080359060200190929190803590602001909291908035906020019092919050505061254e565b005b348015610d4857600080fd5b50610d8b60048036036020811015610d5f57600080fd5b81019080803573ffffffffffffffffffffffffffffffffffffffff169060200190929190505050612932565b6040518082815260200191505060405180910390f35b348015610dad57600080fd5b50610dda60048036036020811015610dc457600080fd5b810190808035906020019092919050505061294a565b604051808273ffffffffffffffffffffffffffffffffffffffff1673ffffffffffffffffffffffffffffffffffffffff16815260200191505060405180910390f35b348015610e2857600080fd5b50610e31612986565b6040518082815260200191505060405180910390f35b348015610e5357600080fd5b50610eb660048036036040811015610e6a57600080fd5b81019080803573ffffffffffffffffffffffffffffffffffffffff169060200190929190803573ffffffffffffffffffffffffffffffffffffffff16906020019092919050505061298c565b604051808215151515815260200191505060405180910390f35b348015610edc57600080fd5b50610f3f60048036036040811015610ef357600080fd5b81019080803573ffffffffffffffffffffffffffffffffffffffff169060200190929190803573ffffffffffffffffffffffffffffffffffffffff169060200190929190505050612b3d565b6040518082815260200191505060405180910390f35b348015610f6157600080fd5b50610f8e60048036036020811015610f7857600080fd5b8101908080359060200190929190505050612bc4565b604051808273ffffffffffffffffffffffffffffffffffffffff1673ffffffffffffffffffffffffffffffffffffffff16815260200191505060405180910390f35b348015610fdc57600080fd5b5061100960048036036020811015610ff357600080fd5b8101908080359060200190929190505050612c00565b604051808273ffffffffffffffffffffffffffffffffffffffff1673ffffffffffffffffffffffffffffffffffffffff16815260200191505060405180910390f35b34801561105757600080fd5b50611060612c3c565b6040518082815260200191505060405180910390f35b34801561108257600080fd5b506110af6004803603602081101561109957600080fd5b8101908080359060200190929190505050612c42565b60405180848152602001838152602001828152602001935050505060405180910390f35b3480156110df57600080fd5b50611122600480360360208110156110f657600080fd5b81019080803573ffffffffffffffffffffffffffffffffffffffff169060200190929190505050612c6c565b6040518082815260200191505060405180910390f35b34801561114457600080fd5b506111876004803603602081101561115b57600080fd5b81019080803573ffffffffffffffffffffffffffffffffffffffff169060200190929190505050612c84565b005b34801561119557600080fd5b50611310600480360360808110156111ac57600080fd5b81019080803573ffffffffffffffffffffffffffffffffffffffff16906020019092919080359060200190929190803590602001906401000000008111156111f357600080fd5b82018360208201111561120557600080fd5b8035906020019184600183028401116401000000008311171561122757600080fd5b91908080601f016020809104026020016040519081016040528093929190818152602001838380828437600081840152601f19601f8201169050808301925050505050505091929192908035906020019064010000000081111561128a57600080fd5b82018360208201111561129c57600080fd5b803590602001918460018302840111640100000000831117156112be57600080fd5b91908080601f016020809104026020016040519081016040528093929190818152602001838380828437600081840152601f19601f820116905080830192505050505050509192919290505050612efb565b005b34801561131e57600080fd5b506113e26004803603604081101561133557600080fd5b81019080803590602001909291908035906020019064010000000081111561135c57600080fd5b82018360208201111561136e57600080fd5b8035906020019184600183028401116401000000008311171561139057600080fd5b91908080601f016020809104026020016040519081016040528093929190818152602001838380828437600081840152601f19601f820116905080830192505050505050509192919290505050612f73565b005b60008060018301600a0a850290506000600a600586848161140157fe5b05018161140a57fe5b05905080925050509392505050565b60008090505b600b8054905081101561165c573373ffffffffffffffffffffffffffffffffffffffff16600b828154811061145057fe5b9060005260206000200160009054906101000a900473ffffffffffffffffffffffffffffffffffffffff1673ffffffffffffffffffffffffffffffffffffffff16141561164f5760006114a233611daa565b90508273ffffffffffffffffffffffffffffffffffffffff166108fc600d5486029081150290604051600060405180830381858888f193505050501580156114ee573d6000803e3d6000fd5b5061152e816040518060400160405280600481526020017f3078643300000000000000000000000000000000000000000000000000000000815250612f73565b60405180606001604052808581526020016013548152602001428152506016600060135481526020019081526020016000206000820151816000015560208201518160010155604082015181600201559050507f9cdd16cf773714429c43e5deb31e002f5dde50f14ca0388f8ed298b9d8a96cc933856003601354601260003373ffffffffffffffffffffffffffffffffffffffff1673ffffffffffffffffffffffffffffffffffffffff16815260200190815260200160002054604051808673ffffffffffffffffffffffffffffffffffffffff1673ffffffffffffffffffffffffffffffffffffffff1681526020018581526020018460ff1681526020018381526020018281526020019550505050505060405180910390a15061165c565b808060010191505061141f565b505050565b606060048054806020026020016040519081016040528092919081815260200182805480156116e557602002820191906000526020600020905b8160009054906101000a900473ffffffffffffffffffffffffffffffffffffffff1673ffffffffffffffffffffffffffffffffffffffff168152602001906001019080831161169b575b5050505050905090565b606060028054600181600116156101000203166002900480601f0160208091040260200160405190810160405280929190818152602001828054600181600116156101000203166002900480156117875780601f1061175c57610100808354040283529160200191611787565b820191906000526020600020905b81548152906001019060200180831161176a57829003601f168201915b5050505050905090565b60008061179c612f99565b90506117a9818585612fa1565b600191505092915050565b60126020528060005260406000206000915090505481565b600d5481565b6000600154905090565b60146020528060005260406000206000915090508060000154908060010154908060020154905083565b60008073ffffffffffffffffffffffffffffffffffffffff168373ffffffffffffffffffffffffffffffffffffffff16141561188d576040517f08c379a000000000000000000000000000000000000000000000000000000000815260040180806020018281038252602481526020018061460f6024913960400191505060405180910390fd5b600073ffffffffffffffffffffffffffffffffffffffff168473ffffffffffffffffffffffffffffffffffffffff161415611913576040517f08c379a00000000000000000000000000000000000000000000000000000000081526004018080602001828103825260268152602001806146886026913960400191505060405180910390fd5b600061191d612f99565b905061194b818686866040518060200160405280600081525060405180602001604052806000815250613198565b6119778186868660405180602001604052806000815250604051806020016040528060008152506134b2565b611a2a8582611a258660405180606001604052806029815260200161465f60299139600860008c73ffffffffffffffffffffffffffffffffffffffff1673ffffffffffffffffffffffffffffffffffffffff16815260200190815260200160002060008873ffffffffffffffffffffffffffffffffffffffff1673ffffffffffffffffffffffffffffffffffffffff168152602001908152602001600020546137c19092919063ffffffff16565b612fa1565b611a58818686866040518060200160405280600081525060405180602001604052806000815250600061387b565b60019150509392505050565b60008090505b600980549050811015611c5e573373ffffffffffffffffffffffffffffffffffffffff1660098281548110611a9b57fe5b9060005260206000200160009054906101000a900473ffffffffffffffffffffffffffffffffffffffff1673ffffffffffffffffffffffffffffffffffffffff161415611c5157600a600d81905550601360008154809291906001019190505550611b2633846040518060200160405280600081525060405180602001604052806000815250613c16565b6040518060600160405280848152602001601354815260200142815250601460006013548152602001908152602001600020600082015181600001556020820151816001015560408201518160020155905050611b838284612400565b507f9cdd16cf773714429c43e5deb31e002f5dde50f14ca0388f8ed298b9d8a96cc933846001601354601060003373ffffffffffffffffffffffffffffffffffffffff1673ffffffffffffffffffffffffffffffffffffffff16815260200190815260200160002054604051808673ffffffffffffffffffffffffffffffffffffffff1673ffffffffffffffffffffffffffffffffffffffff1681526020018581526020018460ff1681526020018381526020018281526020019550505050505060405180910390a1611c5e565b8080600101915050611a6a565b505050565b600a8181548110611c7057fe5b906000526020600020016000915054906101000a900473ffffffffffffffffffffffffffffffffffffffff1681565b60006012905090565b600e5481565b3373ffffffffffffffffffffffffffffffffffffffff16600c600081548110611cd357fe5b9060005260206000200160009054906101000a900473ffffffffffffffffffffffffffffffffffffffff1673ffffffffffffffffffffffffffffffffffffffff161415611d225780600d819055505b50565b60006001905090565b611d3f611d39612f99565b8661298c565b611d94576040517f08c379a000000000000000000000000000000000000000000000000000000000815260040180806020018281038252602c815260200180614633602c913960400191505060405180910390fd5b611da385858585856001613f3d565b5050505050565b60008060008373ffffffffffffffffffffffffffffffffffffffff1673ffffffffffffffffffffffffffffffffffffffff168152602001908152602001600020549050919050565b8073ffffffffffffffffffffffffffffffffffffffff16611e11612f99565b73ffffffffffffffffffffffffffffffffffffffff161415611e7e576040517f08c379a000000000000000000000000000000000000000000000000000000000815260040180806020018281038252602481526020018061457d6024913960400191505060405180910390fd5b600560008273ffffffffffffffffffffffffffffffffffffffff1673ffffffffffffffffffffffffffffffffffffffff16815260200190815260200160002060009054906101000a900460ff1615611f685760076000611edc612f99565b73ffffffffffffffffffffffffffffffffffffffff1673ffffffffffffffffffffffffffffffffffffffff16815260200190815260200160002060008273ffffffffffffffffffffffffffffffffffffffff1673ffffffffffffffffffffffffffffffffffffffff16815260200190815260200160002060006101000a81549060ff0219169055612005565b600160066000611f76612f99565b73ffffffffffffffffffffffffffffffffffffffff1673ffffffffffffffffffffffffffffffffffffffff16815260200190815260200160002060008373ffffffffffffffffffffffffffffffffffffffff1673ffffffffffffffffffffffffffffffffffffffff16815260200190815260200160002060006101000a81548160ff0219169083151502179055505b61200d612f99565b73ffffffffffffffffffffffffffffffffffffffff168173ffffffffffffffffffffffffffffffffffffffff167ff4caeb2d6ca8932a215a353d0703c326ec2d81fc68170f320eb2ab49e9df61f960405160405180910390a350565b606060038054600181600116156101000203166002900480601f0160208091040260200160405190810160405280929190818152602001828054600181600116156101000203166002900480156121015780601f106120d657610100808354040283529160200191612101565b820191906000526020600020905b8154815290600101906020018083116120e457829003601f168201915b5050505050905090565b612137336107d06040518060200160405280600081525060405180602001604052806000815250613c16565b565b61215e612144612f99565b848484604051806020016040528060008152506001613f3d565b505050565b60008090505b600a805490508110156123fa573373ffffffffffffffffffffffffffffffffffffffff16600a828154811061219a57fe5b9060005260206000200160009054906101000a900473ffffffffffffffffffffffffffffffffffffffff1673ffffffffffffffffffffffffffffffffffffffff1614156123ed5760006121ec33611daa565b90508273ffffffffffffffffffffffffffffffffffffffff166108fc600d5483029081150290604051600060405180830381858888f19350505050158015612238573d6000803e3d6000fd5b506000858203905061227f816040518060400160405280600481526020017f3078643300000000000000000000000000000000000000000000000000000000815250612f73565b600061228d828860006113e4565b600a03905060008082136122a157816122a4565b60005b6073019050606481600d5402816122b757fe5b04600d81905550604051806060016040528089815260200160135481526020014281525060156000601354815260200190815260200160002060008201518160000155602082015181600101556040820151816002015590505061231b8789612400565b507f9cdd16cf773714429c43e5deb31e002f5dde50f14ca0388f8ed298b9d8a96cc933896002601354601160003373ffffffffffffffffffffffffffffffffffffffff1673ffffffffffffffffffffffffffffffffffffffff16815260200190815260200160002054604051808673ffffffffffffffffffffffffffffffffffffffff1673ffffffffffffffffffffffffffffffffffffffff1681526020018581526020018460ff1681526020018381526020018281526020019550505050505060405180910390a1505050506123fa565b8080600101915050612169565b50505050565b60008073ffffffffffffffffffffffffffffffffffffffff168373ffffffffffffffffffffffffffffffffffffffff161415612487576040517f08c379a000000000000000000000000000000000000000000000000000000000815260040180806020018281038252602481526020018061460f6024913960400191505060405180910390fd5b6000612491612f99565b90506124bf818286866040518060200160405280600081525060405180602001604052806000815250613198565b6124eb8182868660405180602001604052806000815250604051806020016040528060008152506134b2565b612519818286866040518060200160405280600081525060405180602001604052806000815250600061387b565b600191505092915050565b60166020528060005260406000206000915090508060000154908060010154908060020154905083565b3373ffffffffffffffffffffffffffffffffffffffff16600c60008154811061257357fe5b9060005260206000200160009054906101000a900473ffffffffffffffffffffffffffffffffffffffff1673ffffffffffffffffffffffffffffffffffffffff16141561292c576000831180156125ca5750600483105b6125d357600080fd5b60018314156126f0576009849080600181540180825580915050600190039060005260206000200160009091909190916101000a81548173ffffffffffffffffffffffffffffffffffffffff021916908373ffffffffffffffffffffffffffffffffffffffff16021790555081601060008673ffffffffffffffffffffffffffffffffffffffff1673ffffffffffffffffffffffffffffffffffffffff168152602001908152602001600020819055507f0a7183d5fa1d84a7c428d9c0a71fb9b95337bbffe2a054b99eda22f4178278bf6040518080602001828103825260108152602001807f506c616e74204e6f64652041646465640000000000000000000000000000000081525060200191505060405180910390a161292b565b600283141561281357600a849080600181540180825580915050600190039060005260206000200160009091909190916101000a81548173ffffffffffffffffffffffffffffffffffffffff021916908373ffffffffffffffffffffffffffffffffffffffff160217905550806103e8830201601160008673ffffffffffffffffffffffffffffffffffffffff1673ffffffffffffffffffffffffffffffffffffffff168152602001908152602001600020819055507f0a7183d5fa1d84a7c428d9c0a71fb9b95337bbffe2a054b99eda22f4178278bf6040518080602001828103825260168152602001807f4469737472696275746f72204e6f64652041646465640000000000000000000081525060200191505060405180910390a161292a565b600b849080600181540180825580915050600190039060005260206000200160009091909190916101000a81548173ffffffffffffffffffffffffffffffffffffffff021916908373ffffffffffffffffffffffffffffffffffffffff16021790555080620186a0830201601260008673ffffffffffffffffffffffffffffffffffffffff1673ffffffffffffffffffffffffffffffffffffffff168152602001908152602001600020819055507f0a7183d5fa1d84a7c428d9c0a71fb9b95337bbffe2a054b99eda22f4178278bf6040518080602001828103825260138152602001807f436f6e73756d6572204e6f64652041646465640000000000000000000000000081525060200191505060405180910390a15b5b5b50505050565b60116020528060005260406000206000915090505481565b600c818154811061295757fe5b906000526020600020016000915054906101000a900473ffffffffffffffffffffffffffffffffffffffff1681565b60135481565b60008173ffffffffffffffffffffffffffffffffffffffff168373ffffffffffffffffffffffffffffffffffffffff161480612aa45750600560008473ffffffffffffffffffffffffffffffffffffffff1673ffffffffffffffffffffffffffffffffffffffff16815260200190815260200160002060009054906101000a900460ff168015612aa35750600760008373ffffffffffffffffffffffffffffffffffffffff1673ffffffffffffffffffffffffffffffffffffffff16815260200190815260200160002060008473ffffffffffffffffffffffffffffffffffffffff1673ffffffffffffffffffffffffffffffffffffffff16815260200190815260200160002060009054906101000a900460ff16155b5b80612b355750600660008373ffffffffffffffffffffffffffffffffffffffff1673ffffffffffffffffffffffffffffffffffffffff16815260200190815260200160002060008473ffffffffffffffffffffffffffffffffffffffff1673ffffffffffffffffffffffffffffffffffffffff16815260200190815260200160002060009054906101000a900460ff165b905092915050565b6000600860008473ffffffffffffffffffffffffffffffffffffffff1673ffffffffffffffffffffffffffffffffffffffff16815260200190815260200160002060008373ffffffffffffffffffffffffffffffffffffffff1673ffffffffffffffffffffffffffffffffffffffff16815260200190815260200160002054905092915050565b60098181548110612bd157fe5b906000526020600020016000915054906101000a900473ffffffffffffffffffffffffffffffffffffffff1681565b600b8181548110612c0d57fe5b906000526020600020016000915054906101000a900473ffffffffffffffffffffffffffffffffffffffff1681565b600f5481565b60156020528060005260406000206000915090508060000154908060010154908060020154905083565b60106020528060005260406000206000915090505481565b612c8c612f99565b73ffffffffffffffffffffffffffffffffffffffff168173ffffffffffffffffffffffffffffffffffffffff161415612d10576040517f08c379a00000000000000000000000000000000000000000000000000000000081526004018080602001828103825260218152602001806145a16021913960400191505060405180910390fd5b600560008273ffffffffffffffffffffffffffffffffffffffff1673ffffffffffffffffffffffffffffffffffffffff16815260200190815260200160002060009054906101000a900460ff1615612e0357600160076000612d70612f99565b73ffffffffffffffffffffffffffffffffffffffff1673ffffffffffffffffffffffffffffffffffffffff16815260200190815260200160002060008373ffffffffffffffffffffffffffffffffffffffff1673ffffffffffffffffffffffffffffffffffffffff16815260200190815260200160002060006101000a81548160ff021916908315150217905550612e97565b60066000612e0f612f99565b73ffffffffffffffffffffffffffffffffffffffff1673ffffffffffffffffffffffffffffffffffffffff16815260200190815260200160002060008273ffffffffffffffffffffffffffffffffffffffff1673ffffffffffffffffffffffffffffffffffffffff16815260200190815260200160002060006101000a81549060ff02191690555b612e9f612f99565b73ffffffffffffffffffffffffffffffffffffffff168173ffffffffffffffffffffffffffffffffffffffff167f50546e66e5f44d728365dc3908c63bc5cfeeab470722c1677e3073a6ac294aa160405160405180910390a350565b612f0c612f06612f99565b8561298c565b612f61576040517f08c379a000000000000000000000000000000000000000000000000000000000815260040180806020018281038252602c815260200180614633602c913960400191505060405180910390fd5b612f6d848484846140a6565b50505050565b612f95612f7e612f99565b8383604051806020016040528060008152506140a6565b5050565b600033905090565b600073ffffffffffffffffffffffffffffffffffffffff168373ffffffffffffffffffffffffffffffffffffffff161415613027576040517f08c379a00000000000000000000000000000000000000000000000000000000081526004018080602001828103825260258152602001806144ed6025913960400191505060405180910390fd5b600073ffffffffffffffffffffffffffffffffffffffff168273ffffffffffffffffffffffffffffffffffffffff1614156130ad576040517f08c379a00000000000000000000000000000000000000000000000000000000081526004018080602001828103825260238152602001806146d16023913960400191505060405180910390fd5b80600860008573ffffffffffffffffffffffffffffffffffffffff1673ffffffffffffffffffffffffffffffffffffffff16815260200190815260200160002060008473ffffffffffffffffffffffffffffffffffffffff1673ffffffffffffffffffffffffffffffffffffffff168152602001908152602001600020819055508173ffffffffffffffffffffffffffffffffffffffff168373ffffffffffffffffffffffffffffffffffffffff167f8c5be1e5ebec7d5bd14f71427d1e84f3dd0314c0f7b2291e5b200ac8c7c3b925836040518082815260200191505060405180910390a3505050565b6000731820a4b7618bde71dce8cdc73aab6c95905fad2473ffffffffffffffffffffffffffffffffffffffff1663aabbb8ca877f29ddb589b1fb5fc7cf394961c1adf5f8c6454761adf795e67fe149f658abe89560001b6040518363ffffffff1660e01b8152600401808373ffffffffffffffffffffffffffffffffffffffff1673ffffffffffffffffffffffffffffffffffffffff1681526020018281526020019250505060206040518083038186803b15801561325657600080fd5b505afa15801561326a573d6000803e3d6000fd5b505050506040513d602081101561328057600080fd5b81019080805190602001909291905050509050600073ffffffffffffffffffffffffffffffffffffffff168173ffffffffffffffffffffffffffffffffffffffff16146134a9578073ffffffffffffffffffffffffffffffffffffffff166375ab97828888888888886040518763ffffffff1660e01b8152600401808773ffffffffffffffffffffffffffffffffffffffff1673ffffffffffffffffffffffffffffffffffffffff1681526020018673ffffffffffffffffffffffffffffffffffffffff1673ffffffffffffffffffffffffffffffffffffffff1681526020018573ffffffffffffffffffffffffffffffffffffffff1673ffffffffffffffffffffffffffffffffffffffff1681526020018481526020018060200180602001838103835285818151815260200191508051906020019080838360005b838110156133d85780820151818401526020810190506133bd565b50505050905090810190601f1680156134055780820380516001836020036101000a031916815260200191505b50838103825284818151815260200191508051906020019080838360005b8381101561343e578082015181840152602081019050613423565b50505050905090810190601f16801561346b5780820380516001836020036101000a031916815260200191505b5098505050505050505050600060405180830381600087803b15801561349057600080fd5b505af11580156134a4573d6000803e3d6000fd5b505050505b50505050505050565b6134be868686866143c8565b61352983604051806060016040528060278152602001614534602791396000808973ffffffffffffffffffffffffffffffffffffffff1673ffffffffffffffffffffffffffffffffffffffff168152602001908152602001600020546137c19092919063ffffffff16565b6000808773ffffffffffffffffffffffffffffffffffffffff1673ffffffffffffffffffffffffffffffffffffffff168152602001908152602001600020819055506135bc836000808773ffffffffffffffffffffffffffffffffffffffff1673ffffffffffffffffffffffffffffffffffffffff168152602001908152602001600020546143ce90919063ffffffff16565b6000808673ffffffffffffffffffffffffffffffffffffffff1673ffffffffffffffffffffffffffffffffffffffff168152602001908152602001600020819055508373ffffffffffffffffffffffffffffffffffffffff168573ffffffffffffffffffffffffffffffffffffffff168773ffffffffffffffffffffffffffffffffffffffff167f06b541ddaa720db2b10a4d0cdac39b8d360425fc073085fac19bc82614677987868686604051808481526020018060200180602001838103835285818151815260200191508051906020019080838360005b838110156136b1578082015181840152602081019050613696565b50505050905090810190601f1680156136de5780820380516001836020036101000a031916815260200191505b50838103825284818151815260200191508051906020019080838360005b838110156137175780820151818401526020810190506136fc565b50505050905090810190601f1680156137445780820380516001836020036101000a031916815260200191505b509550505050505060405180910390a48373ffffffffffffffffffffffffffffffffffffffff168573ffffffffffffffffffffffffffffffffffffffff167fddf252ad1be2c89b69c2b068fc378daa952ba7f163c4a11628f55a4df523b3ef856040518082815260200191505060405180910390a3505050505050565b600083831115829061386e576040517f08c379a00000000000000000000000000000000000000000000000000000000081526004018080602001828103825283818151815260200191508051906020019080838360005b83811015613833578082015181840152602081019050613818565b50505050905090810190601f1680156138605780820380516001836020036101000a031916815260200191505b509250505060405180910390fd5b5082840390509392505050565b6000731820a4b7618bde71dce8cdc73aab6c95905fad2473ffffffffffffffffffffffffffffffffffffffff1663aabbb8ca877fb281fc8c12954d22544db45de3159a39272895b169a852b314f9cc762e44c53b60001b6040518363ffffffff1660e01b8152600401808373ffffffffffffffffffffffffffffffffffffffff1673ffffffffffffffffffffffffffffffffffffffff1681526020018281526020019250505060206040518083038186803b15801561393957600080fd5b505afa15801561394d573d6000803e3d6000fd5b505050506040513d602081101561396357600080fd5b81019080805190602001909291905050509050600073ffffffffffffffffffffffffffffffffffffffff168173ffffffffffffffffffffffffffffffffffffffff1614613b8f578073ffffffffffffffffffffffffffffffffffffffff166223de298989898989896040518763ffffffff1660e01b8152600401808773ffffffffffffffffffffffffffffffffffffffff1673ffffffffffffffffffffffffffffffffffffffff1681526020018673ffffffffffffffffffffffffffffffffffffffff1673ffffffffffffffffffffffffffffffffffffffff1681526020018573ffffffffffffffffffffffffffffffffffffffff1673ffffffffffffffffffffffffffffffffffffffff1681526020018481526020018060200180602001838103835285818151815260200191508051906020019080838360005b83811015613aba578082015181840152602081019050613a9f565b50505050905090810190601f168015613ae75780820380516001836020036101000a031916815260200191505b50838103825284818151815260200191508051906020019080838360005b83811015613b20578082015181840152602081019050613b05565b50505050905090810190601f168015613b4d5780820380516001836020036101000a031916815260200191505b5098505050505050505050600060405180830381600087803b158015613b7257600080fd5b505af1158015613b86573d6000803e3d6000fd5b50505050613c0c565b8115613c0b57613bb48673ffffffffffffffffffffffffffffffffffffffff16614456565b15613c0a576040517f08c379a000000000000000000000000000000000000000000000000000000000815260040180806020018281038252604d8152602001806145c2604d913960600191505060405180910390fd5b5b5b5050505050505050565b600073ffffffffffffffffffffffffffffffffffffffff168473ffffffffffffffffffffffffffffffffffffffff161415613cb9576040517f08c379a00000000000000000000000000000000000000000000000000000000081526004018080602001828103825260208152602001807f4552433737373a206d696e7420746f20746865207a65726f206164647265737381525060200191505060405180910390fd5b6000613cc3612f99565b9050613cd281600087876143c8565b613ce7846001546143ce90919063ffffffff16565b600181905550613d3e846000808873ffffffffffffffffffffffffffffffffffffffff1673ffffffffffffffffffffffffffffffffffffffff168152602001908152602001600020546143ce90919063ffffffff16565b6000808773ffffffffffffffffffffffffffffffffffffffff1673ffffffffffffffffffffffffffffffffffffffff16815260200190815260200160002081905550613d9181600087878787600161387b565b8473ffffffffffffffffffffffffffffffffffffffff168173ffffffffffffffffffffffffffffffffffffffff167f2fe5be0146f74c5bce36c0b80911af6c7d86ff27e89d5cfa61fc681327954e5d868686604051808481526020018060200180602001838103835285818151815260200191508051906020019080838360005b83811015613e2d578082015181840152602081019050613e12565b50505050905090810190601f168015613e5a5780820380516001836020036101000a031916815260200191505b50838103825284818151815260200191508051906020019080838360005b83811015613e93578082015181840152602081019050613e78565b50505050905090810190601f168015613ec05780820380516001836020036101000a031916815260200191505b509550505050505060405180910390a38473ffffffffffffffffffffffffffffffffffffffff16600073ffffffffffffffffffffffffffffffffffffffff167fddf252ad1be2c89b69c2b068fc378daa952ba7f163c4a11628f55a4df523b3ef866040518082815260200191505060405180910390a35050505050565b600073ffffffffffffffffffffffffffffffffffffffff168673ffffffffffffffffffffffffffffffffffffffff161415613fc3576040517f08c379a00000000000000000000000000000000000000000000000000000000081526004018080602001828103825260228152602001806145126022913960400191505060405180910390fd5b600073ffffffffffffffffffffffffffffffffffffffff168573ffffffffffffffffffffffffffffffffffffffff161415614066576040517f08c379a00000000000000000000000000000000000000000000000000000000081526004018080602001828103825260208152602001807f4552433737373a2073656e6420746f20746865207a65726f206164647265737381525060200191505060405180910390fd5b6000614070612f99565b9050614080818888888888613198565b61408e8188888888886134b2565b61409d8188888888888861387b565b50505050505050565b600073ffffffffffffffffffffffffffffffffffffffff168473ffffffffffffffffffffffffffffffffffffffff16141561412c576040517f08c379a000000000000000000000000000000000000000000000000000000000815260040180806020018281038252602281526020018061455b6022913960400191505060405180910390fd5b6000614136612f99565b905061414781866000878787613198565b61415481866000876143c8565b6141bf846040518060600160405280602381526020016146ae602391396000808973ffffffffffffffffffffffffffffffffffffffff1673ffffffffffffffffffffffffffffffffffffffff168152602001908152602001600020546137c19092919063ffffffff16565b6000808773ffffffffffffffffffffffffffffffffffffffff1673ffffffffffffffffffffffffffffffffffffffff168152602001908152602001600020819055506142168460015461446990919063ffffffff16565b6001819055508473ffffffffffffffffffffffffffffffffffffffff168173ffffffffffffffffffffffffffffffffffffffff167fa78a9be3a7b862d26933ad85fb11d80ef66b8f972d7cbba06621d583943a4098868686604051808481526020018060200180602001838103835285818151815260200191508051906020019080838360005b838110156142b857808201518184015260208101905061429d565b50505050905090810190601f1680156142e55780820380516001836020036101000a031916815260200191505b50838103825284818151815260200191508051906020019080838360005b8381101561431e578082015181840152602081019050614303565b50505050905090810190601f16801561434b5780820380516001836020036101000a031916815260200191505b509550505050505060405180910390a3600073ffffffffffffffffffffffffffffffffffffffff168573ffffffffffffffffffffffffffffffffffffffff167fddf252ad1be2c89b69c2b068fc378daa952ba7f163c4a11628f55a4df523b3ef866040518082815260200191505060405180910390a35050505050565b50505050565b60008082840190508381101561444c576040517f08c379a000000000000000000000000000000000000000000000000000000000815260040180806020018281038252601b8152602001807f536166654d6174683a206164646974696f6e206f766572666c6f77000000000081525060200191505060405180910390fd5b8091505092915050565b600080823b905060008111915050919050565b6000828211156144e1576040517f08c379a000000000000000000000000000000000000000000000000000000000815260040180806020018281038252601e8152602001807f536166654d6174683a207375627472616374696f6e206f766572666c6f77000081525060200191505060405180910390fd5b81830390509291505056fe4552433737373a20617070726f76652066726f6d20746865207a65726f20616464726573734552433737373a2073656e642066726f6d20746865207a65726f20616464726573734552433737373a207472616e7366657220616d6f756e7420657863656564732062616c616e63654552433737373a206275726e2066726f6d20746865207a65726f20616464726573734552433737373a20617574686f72697a696e672073656c66206173206f70657261746f724552433737373a207265766f6b696e672073656c66206173206f70657261746f724552433737373a20746f6b656e20726563697069656e7420636f6e747261637420686173206e6f20696d706c656d656e74657220666f7220455243373737546f6b656e73526563697069656e744552433737373a207472616e7366657220746f20746865207a65726f20616464726573734552433737373a2063616c6c6572206973206e6f7420616e206f70657261746f7220666f7220686f6c6465724552433737373a207472616e7366657220616d6f756e74206578636565647320616c6c6f77616e63654552433737373a207472616e736665722066726f6d20746865207a65726f20616464726573734552433737373a206275726e20616d6f756e7420657863656564732062616c616e63654552433737373a20617070726f766520746f20746865207a65726f2061646472657373a2646970667358221220698571289dfd283217107fece4e464a53592eec6461d1213a5e672ea639e719064736f6c63430006020033",
  "source": "pragma solidity >=0.4.22 <0.9.0;\n\n\nimport \"@openzeppelin/contracts/token/ERC777/ERC777.sol\";\n\ncontract EnergyToken is ERC777 {\n    address[] public plantNodes;\n    address[] public distributorNodes;\n    address[] public consumerNodes;\n    address[] public defaultoperators;\n    \n    uint256 public cost = 10;\n    uint256 public totalCost;\n    uint256 public checkLost;\n    \n    event EnergyTokenAltered(address nodeAddress, uint256 tokens, uint8 entity, uint256 currentLot, uint256 id);\n    event NodeAdded(string message);\n\n    mapping(address => uint256) public plants;\n    mapping(address => uint256) public distributors;\n    mapping(address => uint256) public consumers;\n    \n    struct TokenStat {\n        uint256 units;\n        uint256 lot;\n        uint256 datetime;\n    }\n\n    uint256 public currentLot;\n    \n    mapping(uint256 => TokenStat) public plantLogs;\n    mapping(uint256 => TokenStat) public distributorLogs;\n    mapping(uint256 => TokenStat) public consumerLogs;\n    \n      function percent(uint numerator, uint denominator, uint precision) public returns(int quotient) {\n        \n                 // caution, check safe-to-multiply here\n                int _numerator  = int(numerator * 10 ** (precision+1));\n                // with rounding of last digit\n                int _quotient =  ((_numerator / int(denominator)) + 5) / 10;\n                return  _quotient;\n          }\n\n\n    constructor(uint256 initialSupply, address[] memory _defaultOperators) public  ERC777(\"EnergyToken\", \"ETN\", _defaultOperators) \n    {\n        defaultoperators = _defaultOperators;\n    }\n    \n    modifier onlyPlant{\n        for (uint256 j = 0; j < plantNodes.length; j++){\n            if (plantNodes[j] == msg.sender){\n                _;\n                break;\n            }\n        }\n    }\n    \n    modifier onlyDefaultOperator{\n        if (defaultoperators[0] == msg.sender){\n            _;\n        }\n    }\n    \n    modifier onlyDistributor{\n        for (uint256 j = 0; j < distributorNodes.length; j++){\n            if (distributorNodes[j] == msg.sender){\n                _;\n                break;\n            }\n        }\n    }\n    \n    modifier onlyConsumer{\n        for (uint256 j = 0; j < consumerNodes.length; j++){\n            \n            if (consumerNodes[j] == msg.sender){\n                _;\n                break;\n            }\n        }\n    }\n    \n    /* entities:\n        1: Power Plant\n        2: Distributor\n        3: Consumer\n    \n        Power Plant id: 01\n        Distributor id: 0201\n        Consumer id: 12340201\n    */\n    \n    function createNode(address nodeAddress, uint256 entity, uint256 id, uint256 aheadEntity) public onlyDefaultOperator {\n        require(entity > 0 && entity < 4);\n        if (entity == 1){\n            plantNodes.push(nodeAddress);\n            plants[nodeAddress] = id;\n            emit NodeAdded(\"Plant Node Added\");\n        }\n        else if (entity == 2){\n            distributorNodes.push(nodeAddress);\n            distributors[nodeAddress] = id*(10**3) + aheadEntity;\n            emit NodeAdded(\"Distributor Node Added\");\n        }\n        else {\n            consumerNodes.push(nodeAddress);\n            consumers[nodeAddress] = id*(10**5) + aheadEntity;\n            emit NodeAdded(\"Consumer Node Added\");\n        }\n    }\n    \n    // mineTokenPlant receives the \n    \n    function mine() public{\n        _mint(msg.sender, 2000, \"\", \"\");\n    }\n    \n    function mineTokenPlant(uint256 units, address distributor) public onlyPlant {  \n        //the receiving address in parameter is just for fast prototyping\n        cost = 10;\n        currentLot++;\n        _mint(msg.sender, units, \"\", \"\");\n        plantLogs[currentLot] = TokenStat(units, currentLot, block.timestamp);\n        super.transfer(distributor, units);\n        emit EnergyTokenAltered(msg.sender, units, 1, currentLot, plants[msg.sender]);\n    }\n    \n    function evaluateTokenDistributor(uint256 units, address consumer, address payable plant) public payable onlyDistributor{\n        uint256 totalUnits = super.balanceOf(msg.sender);\n        plant.transfer(totalUnits * cost);\n        uint256 lostTokens = totalUnits - units;\n        super.burn(lostTokens, \"0xd3\");\n        int256 diffLoss = 10 - percent(lostTokens, units, 0);\n        int256 compensation = 100 + (10+5) + ((diffLoss > 0) ? 0 : diffLoss);\n        cost = cost * uint256(compensation)/100;\n        distributorLogs[currentLot] = TokenStat(units, currentLot, block.timestamp);\n        super.transfer(consumer, units);\n        emit EnergyTokenAltered(msg.sender, units, 2, currentLot, distributors[msg.sender]);\n    }\n    \n    function evaluateTokenConsumer(uint256 units, address payable distributor) public payable onlyConsumer {\n        uint256 totalUnits = super.balanceOf(msg.sender);\n        distributor.transfer(units* cost);\n        super.burn(totalUnits, \"0xd3\");\n        consumerLogs[currentLot] = TokenStat(units, currentLot, block.timestamp);\n        emit EnergyTokenAltered(msg.sender, units, 3, currentLot, consumers[msg.sender]);\n    }\n    \n    function setCost(uint256 _cost) public onlyDefaultOperator {\n        cost = _cost;\n    }\n\n}\n",
  "sourcePath": "/home/suraj/projects/ethereum/decentral-power-system/contracts/EnergyToken.sol",
  "compiler": {
    "name": "solc",
    "version": "0.6.2+commit.bacdbe57.Emscripten.clang"
  },
  "schemaVersion": "3.3.3",
  "updatedAt": "2021-02-19T17:34:23.425Z",
  "networkType": "ethereum",
  "devdoc": {
    "methods": {
      "allowance(address,address)": {
        "details": "See {IERC20-allowance}.     * Note that operator and allowance concepts are orthogonal: operators may not have allowance, and accounts with allowance may not be operators themselves."
      },
      "approve(address,uint256)": {
        "details": "See {IERC20-approve}.     * Note that accounts cannot have allowance issued by their operators."
      },
      "authorizeOperator(address)": {
        "details": "See {IERC777-authorizeOperator}."
      },
      "balanceOf(address)": {
        "details": "Returns the amount of tokens owned by an account (`tokenHolder`)."
      },
      "burn(uint256,bytes)": {
        "details": "See {IERC777-burn}.     * Also emits a {IERC20-Transfer} event for ERC20 compatibility."
      },
      "decimals()": {
        "details": "See {ERC20-decimals}.     * Always returns 18, as per the [ERC777 EIP](https://eips.ethereum.org/EIPS/eip-777#backward-compatibility)."
      },
      "defaultOperators()": {
        "details": "See {IERC777-defaultOperators}."
      },
      "granularity()": {
        "details": "See {IERC777-granularity}.     * This implementation always returns `1`."
      },
      "isOperatorFor(address,address)": {
        "details": "See {IERC777-isOperatorFor}."
      },
      "name()": {
        "details": "See {IERC777-name}."
      },
      "operatorBurn(address,uint256,bytes,bytes)": {
        "details": "See {IERC777-operatorBurn}.     * Emits {Burned} and {IERC20-Transfer} events."
      },
      "operatorSend(address,address,uint256,bytes,bytes)": {
        "details": "See {IERC777-operatorSend}.     * Emits {Sent} and {IERC20-Transfer} events."
      },
      "revokeOperator(address)": {
        "details": "See {IERC777-revokeOperator}."
      },
      "send(address,uint256,bytes)": {
        "details": "See {IERC777-send}.     * Also emits a {IERC20-Transfer} event for ERC20 compatibility."
      },
      "symbol()": {
        "details": "See {IERC777-symbol}."
      },
      "totalSupply()": {
        "details": "See {IERC777-totalSupply}."
      },
      "transfer(address,uint256)": {
        "details": "See {IERC20-transfer}.     * Unlike `send`, `recipient` is _not_ required to implement the {IERC777Recipient} interface if it is a contract.     * Also emits a {Sent} event."
      },
      "transferFrom(address,address,uint256)": {
        "details": "See {IERC20-transferFrom}.    * Note that operator and allowance concepts are orthogonal: operators cannot call `transferFrom` (unless they have allowance), and accounts with allowance cannot call `operatorSend` (unless they are operators).    * Emits {Sent}, {IERC20-Transfer} and {IERC20-Approval} events."
      }
    }
  },
  "userdoc": {
    "methods": {}
  }
}